:020000040800F2
:10000000680B00244D030008011A0008F1190008CC
:10001000F919000859040008B91B00080000000085
:10002000000000000000000000000000111A00089D
:100030006104000800000000091A0008191A0008ED
:1000400067030008670300086703000867030008E8
:1000500067030008670300086703000867030008D8
:1000600067030008670300086703000867030008C8
:1000700067030008670300086703000867030008B8
:1000800067030008670300086703000867030008A8
:100090006703000867030008670300086703000898
:1000A0006703000867030008670300086703000888
:1000B0006703000867030008670300086703000878
:1000C0006703000867030008670300086703000868
:1000D0006703000867030008670300086703000858
:1000E0006703000867030008670300086703000848
:1000F0006703000867030008670300086703000838
:100100006703000867030008670300086703000827
:100110006703000867030008670300086703000817
:100120006703000867030008670300086703000807
:1001300067030008000000000000000067030008DB
:1001400067030008670300086703000867030008E7
:1001500067030008670300086703000867030008D7
:1001600067030008670300086703000867030008C7
:100170006703000867030008670300080000000029
:1001800067030008670300086703000867030008A7
:100190006703000867030008670300086703000897
:1001A0006703000867030008670300086703000887
:1001B0006703000867030008670300086703000877
:1001C000670300086703000800000000000000004B
:1001D00000000000000000006703000800000000AD
:1001E000000000000000000000000000000000000F
:1001F000000000000000000067030008670300081B
:100200006703000867030008000000006703000898
:100210006703000867030008670300086703000816
:100220006703000867030008670300080000000078
:100230006703000867030008000000006703000868
:1002400067030008670300086703000867030008E6
:1002500067030008670300086703000867030008D6
:1002600067030008670300086703000867030008C6
:100270006703000867030008670300080000000028
:100280006703000867030008000000006703000818
:10029000000000006703000867030008000000007A
:1002A00000000000670300086703000800F002F880
:1002B00000F03CF80AA090E8000C82448344AAF1C4
:1002C0000107DA4501D100F031F8AFF2090EBAE8C2
:1002D0000F0013F0010F18BFFB1A43F0010318477A
:1002E0007C1A00009C1A0000103A24BF78C878C11C
:1002F000FAD8520724BF30C830C144BF04680C602C
:10030000704700000023002400250026103A28BF73
:1003100078C1FBD8520728BF30C148BF0B60704777
:100320001FB501F0EFFC1FBD10B510BD00F05CF86B
:100330001146FFF7F5FF01F043FC00F07AF803B433
:10034000FFF7F2FF03BC00F07DF80000094880478A
:1003500009480047FEE7FEE7FEE7FEE7FEE7FEE7A7
:10036000FEE7FEE7FEE7FEE704480549054A064BBF
:1003700070470000011B0008AD020008680500245A
:10038000680B002468070024680700244FF000026F
:1003900000B5134694469646203922BFA0E80C507B
:1003A000A0E80C50B1F12001BFF4F7AF090728BF56
:1003B000A0E80C5048BF0CC05DF804EB890028BFD2
:1003C00040F8042B08BF704748BF20F8022B11F0FB
:1003D000804F18BF00F8012B704770477047704777
:1003E00000487047400000247546FFF7F9FFAE460D
:1003F00005006946534620F00700854618B020B531
:10040000FFF7B2FFBDE820404FF000064FF00007B5
:100410004FF000084FF0000BAC46ACE8C009ACE868
:10042000C009ACE8C009ACE8C00921F007018D465D
:10043000704710B50446AFF300802046BDE8104079
:10044000FFF77DBF01491820ABBEFEE72600020082
:100450007047000000000000FEE700000000000000
:1004600070470000000000002DE9F04740F24057BF
:10047000C2F200473B78002B38D0894640F2C04199
:100480008246C2F20041C0F3C620085CCAF30221D2
:10049000C840C0072AD040F2A0049046C2F20044EF
:1004A00007F1180608E000BF56E8000F46E8001202
:1004B00002B1F9E785421CD0BD6900F0DDFC0146C0
:1004C000A842F1D20123D4E84F0FC4E8423F02B161
:1004D000F9E70006E8D13869002301303861D4E833
:1004E0004F0FC4E8423F02B1F9E7DDE70120BDE864
:1004F000F0875246EFF30580C0F20802002808BFDB
:100500001FFA8AF2434602F140704A46BDE8F047BE
:1005100000F002B8000000002DE9F0474FF08057CE
:100520004FF0005607EAD10740F2405C9846C2F20D
:10053000004C06EA92064FF08044384391468A46C2
:100540000CF1040151E8005F6B1C41E8003202B17C
:10055000F8E704EA5802304305F4707340EA0206F3
:1005600005F03F0040F2C00E46EA8332C2F2004E70
:1005700042F040620EEB001303F10C0454E8007FDC
:10058000BD0103D3BFF32F8F002706E007F000471C
:10059000174344E8007303B1F0E77A0100F1DC800F
:1005A00051E8000F421C41E8002303B1F8E700F4D2
:1005B000707200F03F0046EA82320EEB001342F008
:1005C000406203F10C0454E8007FBD0103D3BFF384
:1005D0002F8F002706E007F00047174344E8007319
:1005E00003B1F0E77A0100F1B78051E8000F421C37
:1005F00041E8002303B1F8E700F4707200F03F0017
:1006000046EA82320EEB001342F0406203F10C0422
:1006100054E8007FBD0103D3BFF32F8F002706E00E
:1006200007F00047174344E8007303B1F0E77A018D
:1006300000F1928051E8000F421C41E8002303B111
:10064000F8E700F4707200F03F0046EA82320EEBE9
:10065000001342F0406203F10C0454E8007FBD0136
:1006600003D3BFF32F8F002706E007F0004717439F
:1006700044E8007303B1F0E77A0100F16D8051E8BE
:10068000000F421C41E8002303B1F8E700F4707248
:1006900000F03F0046EA82320EEB001342F0406267
:1006A00003F10C0454E8007FBD0103D3BFF32F8F87
:1006B000002706E007F00047174344E8007303B142
:1006C000F0E77A0100F1488051E8000F421C41E850
:1006D000002303B1F8E700F4707200F03F0046EA2F
:1006E00082320EEB001342F0406203F10C0454E836
:1006F000007FBD0103D3BFF32F8F002706E007F073
:100700000047174344E8007303B1F0E77A0123D4AC
:1007100051E8000F421C41E8002303B1F8E700F460
:10072000707100F03F0046EA81310EEB001241F09B
:10073000406102F10C0454E8007FBB0103D3BFF316
:100740002F8F002706E007F000470F4344E80072B0
:1007500002B1F0E779012DD587F0044105010EEBD8
:10076000001001F000422AF0004329F0004628F072
:10077000004713444EF80530931943603A448260B1
:1007800054E8002F920103D2BFF32F8F002004E022
:1007900044E8001303B1F3E7012058B10CF108005D
:1007A00050E8001F4A1C40E8002303B1F8E701208D
:1007B000BDE8F0870CF10C0050E8001F4A1C40E82F
:1007C000002303B1F8E70020BDE8F0870000000037
:1007D000F0B50023FE2998BFFE2A01D91846F0BDC6
:1007E00040F2C04CC307C2F2004C3DD091423BD80E
:1007F0004FF0010E0B4600BFDD0803F007065C1C3E
:100800000EFA06F61CF80570944246EA07060CF844
:10081000056029D8E50804F007069C1C0EFA06F6C8
:100820001CF80570944246EA07060CF805601BD8D0
:10083000E50804F00706DC1C0EFA06F61CF8057045
:10084000944246EA07060CF805600DD8E50804F066
:10085000070404330EFA04F41CF80560934244EADA
:1008600006040CF80540C7D9830741D591423FD80B
:100870004FF0010E0B4600BF0CEBD30503F007064B
:100880005C1C0EFA06F695F82070944246EA0706BC
:1008900085F820602CD80CEBD40504F007069C1CCE
:1008A0000EFA06F695F82070944246EA070685F897
:1008B00020601DD80CEBD40504F00706DC1C0EFAF2
:1008C00006F695F82070944246EA070685F82060FF
:1008D0000ED80CEBD40504F0070404330EFA04F42C
:1008E00095F82060934244EA060485F82040C3D975
:1008F000430741D591423FD84FF0010E0B4600BF50
:100900000CEBD30503F007065C1C0EFA06F695F80F
:100910004070944246EA070685F840602CD80CEBFC
:10092000D40504F007069C1C0EFA06F695F84070F4
:10093000944246EA070685F840601DD80CEBD405C2
:1009400004F00706DC1C0EFA06F695F84070944297
:1009500046EA070685F840600ED80CEBD40504F093
:10096000070404330EFA04F495F84060934244EA15
:10097000060485F84040C3D900074FF001037FF516
:100980002DAF91423FF62AAF0CEBD10701F00706DD
:100990000123481C97F8605003FA06F6904246EA95
:1009A000050687F860603FF619AF0CEBD00700F042
:1009B0000706881C03FA06F697F86050904246EA4C
:1009C000050687F860603FF609AF0CEBD00700F032
:1009D00007060123C81C97F8605003FA06F69042F8
:1009E00046EA050687F860603FF6F8AE0CEBD007E4
:1009F00000F00700043103FA00F097F860609142BC
:100A000040EA060087F86000BED9E7E60000000073
:100A10002DE9F04F81B040F2405B40F2C046C2F297
:100A2000004BC2F200468846814600208BF8000049
:100A300080213046FFF7AAFC41F630501821C0F65D
:100A400000004FF6FF73033841F2210210F8037FD4
:100A500083EA07231FB282EA4305B7F1FF3FC8BF0D
:100A60005D002BB282EA4507B3F1FF3FC8BF6F00BC
:100A70003BB282EA4705B3F1FF3FC8BF7D002BB20E
:100A800082EA4507B3F1FF3FC8BF6F003BB282EA7D
:100A90004705B3F1FF3FC8BF7D002BB282EA45078F
:100AA000B3F1FF3FC8BF6F003BB282EA4705B3F125
:100AB000FF3FC8BF7D002BB282EA4507B3F1FF3F7D
:100AC000C8BF6F00437887EA03231FB282EA430559
:100AD000B7F1FF3FC8BF5D002BB282EA4507B3F113
:100AE000FF3FC8BF6F003BB282EA4705B3F1FF3F4B
:100AF000C8BF7D002BB282EA4507B3F1FF3FC8BFF4
:100B00006F003BB282EA4705B3F1FF3FC8BF7D00EB
:100B10002BB282EA4507B3F1FF3FC8BF6F003BB27B
:100B200082EA4705B3F1FF3FC8BF7D002BB282EADE
:100B30004507B3F1FF3F8378C8BF6F0087EA0323FF
:100B40001FB282EA4305B7F1FF3FC8BF5D002BB279
:100B500082EA4507B3F1FF3FC8BF6F003BB282EAAC
:100B60004705B3F1FF3FC8BF7D002BB282EA4507BE
:100B7000B3F1FF3FC8BF6F003BB282EA4705B3F154
:100B8000FF3FC8BF7D002BB282EA4507B3F1FF3FAC
:100B9000C8BF6F003BB282EA4705B3F1FF3FC8BF51
:100BA0007D002FB282EA4503B7F1FF3FC8BF6B005B
:100BB00003397FF44BAF42F26B70DBF82010CEF2BA
:100BC000A510814240F08F8099B2BBF802008842A4
:100BD00040F08B80DBF81C00002800F10100CBF80E
:100BE0001C0000F0878040F2C0000021C2F20040EB
:100BF00006E000BF01F58071B1F5806F00F034812F
:100C00004218D3685F0102D523F04063D360D369F3
:100C10005F0102D523F04063D361D36A5F0102D53F
:100C200023F04063D362D36B5F0102D523F04063AE
:100C3000D363D36C5F0102D523F04063D364D36DDB
:100C40005F0102D523F04063D365D36E5F0102D507
:100C500023F04063D366D36F5F0102D523F0406376
:100C6000D367D2F88C305F0103D523F04063C2F81C
:100C70008C30D2F89C305F0103D523F04063C2F87A
:100C80009C30D2F8AC305F0103D523F04063C2F84A
:100C9000AC30D2F8BC305F0103D523F04063C2F81A
:100CA000BC30D2F8CC305F0103D523F04063C2F8EA
:100CB000CC30D2F8DC305F0103D523F04063C2F8BA
:100CC000DC30D2F8EC305F0103D523F04063C2F88A
:100CD000EC30D2F8FC305F017FF58CAF23F040633D
:100CE000C2F8FC3086E7CBF82000ABF802300120D8
:100CF000CBF81C0040F2C00040F2A007C2F2004056
:100D00004FF4806100258BF80150CBE90155C2F208
:100D10000047CBF80C50FFF739FB00F0BDF88246D6
:100D200010B100F0B1F800E00020CBE90450CBF89E
:100D300018503D70BAF1000F00F092800021FE22A1
:100D40004846FFF745FD707F40F2A00796F83D103A
:100D5000C2F2004796F85D2040F0800096F85F30C0
:100D6000707741F0800096F87D1086F83D0042F0E3
:100D7000800086F85D0041F0800086F87D0043F039
:100D8000400086F85F0001250BF1180608E000BF5F
:100D900056E8000F46E8001202B1F9E784421BD082
:100DA000DBF8184000F068F80146A042F0D2D7E81E
:100DB0004F0FC7E8425F02B1F9E70006E8D1DBF860
:100DC000100000230130CBF81000D7E84F0FC7E820
:100DD000423F02B1F9E7DBE74FF60079DBF8143068
:100DE000C0F20039DBF81C204846FFF795FBB8F14C
:100DF000000F35D09BF80000002831D140F2A00749
:100E00000125C2F200478BF8005007E056E8000FBA
:100E100046E8001202B1F9E784421BD0DBF8184023
:100E200000F02AF80146A042F0D2D7E84F0FC7E8F9
:100E3000425F02B1F9E70006E8D1DBF810000023B9
:100E40000130CBF81000D7E84F0FC7E8423F02B19E
:100E5000F9E7DBE709F1010000220023FFF75CFB63
:100E6000504601B0BDE8F08F00F016F88246BAF1A6
:100E7000000F7FF463AFF3E741F20400CEF200000D
:100E8000006870470000000040F20000C2F200401D
:100E900000687047000000004EF6FC50CEF20000E3
:100EA000016841F08071016041F200010120CEF241
:100EB00000010A6842F001020A6070470000000069
:100EC00040F26450C2F20040006870470000000029
:100ED00040F2080040F26451C2F20040C2F2004108
:100EE00000780A68104408607047000000000000A5
:100EF00080B5032000F09CF800F022FA44F218417B
:100F000041F61E53C5F60201C0F600030A680968DF
:100F100001F00F01C2F30322595C9A5C01F01F013A
:100F200002F01F02D04040F20402C2F2004220FA56
:100F300001F1116040F20001C2F2004108600F208F
:100F400000F00AF800281CBF012080BD00F030F836
:100F5000002080BD00000000B0B540F20801C2F2E0
:100F60000041097801B3044640F20000C2F200409B
:100F70004FF47A72B2FBF1F10068B0FBF1F000F0CF
:100F80001FFD0F2C4FF001050CD858B94FF0FF3062
:100F900000222146002500F01BF840F20C00C2F2AE
:100FA000004004602846B0BD0120B0BD0000000034
:100FB00081B044F25450C5F60200016841F00201CC
:100FC0000160006800F002000090009801B07047D6
:100FD000B0B54EF60C5C00F00F05CEF2000C043DEF
:100FE0006544DCF800304FF0FF3CC3F3022E8EF076
:100FF0000703042B28BF0423BEF1030438BF0024D9
:101000000CFA03F3B0F1FF3F21EA030105F10C03F1
:1010100000F160450CFA04F0C8BF05F56443A14037
:1010200022EA0000084300011870B0BD0000000073
:101030004EF60C514FF6FF03CEF200010A681A403B
:1010400060F30A2242F0806040F0FD700860704753
:1010500070B544F60C060446C5F6020631683068E1
:1010600001F00701062913D120F03F002043306032
:10107000FFF726FF054600BF56F8080C80040DD484
:10108000FFF71EFF401BB0F57A7FF5D9012070BD38
:1010900000F03F00001B18BF012070BDA4F11D012E
:1010A0000020112912D8012202FA01F111F0031FC8
:1010B0000CD0FFF705FF04463068C00307D4FFF7E4
:1010C000FFFE001BB0F57A7FF6D9012070BD00202D
:1010D00070BD0000000000002DE9F04381B0002841
:1010E00000F0288142F200080446C5F20028894633
:1010F000D8F8000000F00F0088420ED2D8F80000A7
:1011000020F00F0040EA0900C8F80000D8F80000FD
:1011100000F00F00484540F00D81206844F2184768
:101120004107C5F602070AD521693A6802F0700244
:10113000914204D93A6822F07002114339600107E4
:101140000AD561697A6802F07002914204D97A681E
:1011500022F0700211437960C1060AD5A1697A684C
:1011600002F4E062914204D97A6822F4E062114309
:10117000796081060AD5E169BA6802F0700291428D
:1011800004D9BA6822F070021143B96010F002016C
:101190000AD0E2683B6803F00F039A4204D93B6827
:1011A00023F00F031A433A60C20745D0386820F491
:1011B0007061D4E90102012841EA0201396009D0D5
:1011C00003280DD0022811D157F8181C890340F1CB
:1011D000B18010E057F8181CC90540F1AB800AE057
:1011E00057F8181C890140F1A58004E057F8181C35
:1011F000490740F19F8057F8081C21F00701084378
:1012000047F8080CFFF75CFE064641F2883500BF40
:1012100057F8080C616800F03800B0EBC10F08D037
:10122000FFF74EFE801BA842F2D9032001B0BDE8B3
:10123000F083206800F0020151B1E1683A6802F0E1
:101240000F02914204D23A6822F00F021143396032
:10125000D8F8001001F00F0149450DD9D8F8001059
:1012600021F00F0141EA0901C8F80010D8F8001078
:1012700001F00F0149455DD141070AD521693A685E
:1012800002F07002914204D23A6822F070021143D7
:10129000396001070AD561697A6802F070029142EB
:1012A00004D27A6822F0700211437960C1060AD52F
:1012B000A1697A6802F4E062914204D27A6822F469
:1012C000E0621143796080060AD5E069B96801F0EF
:1012D0007001884204D2B96821F070010843B860F7
:1012E00000F02EF8396841F61E533A68C0F6000344
:1012F000C1F3032102F00F02595C9A5C01F01F0157
:1013000020FA01F102F01F0040F2040221FA00F07D
:10131000C2F20042106040F20C0040F20002C2F241
:101320000040C2F200420068116001B0BDE8F04325
:10133000FFF712BE012001B0BDE8F08300000000FD
:1013400044F20041C5F602010869C0F3C200032857
:101350000FD002282AD070BB0868800649F200002E
:10136000C0F2D03058BF70470968C1F3C101C8400E
:1013700070478A6A886AC0F3051CC86ABCF1000F0E
:101380004B6B1DD0C3F3CC0300F00100584302F0B7
:101390000302022A00EE100AB8EE400A12D0A2B9E7
:1013A0000868800614D49FED261A1EE043F2006000
:1013B000C0F26E10704740F60010C0F23D0070475A
:1013C000002070479FED1D1A0FE09FED1B1A0CE0E7
:1013D000086849F20002C0F2D032C0F3C10022FA1C
:1013E00000F001EE100AB8EE411A086B9FED153AB5
:1013F0006FF35F2002EE100A086BC0F34620B8EED0
:10140000422A013000EE032A00EE10CAB7EE003A7D
:10141000B8EE400A81EE000A32EE031A20EE010A0D
:1014200001EE100AB8EE411A80EE010ABCEEC00AC5
:1014300010EE100A704700BF0024744A001BB74B1F
:101440000024744C00000039F0B581B0002800F091
:10145000F1800446007844F20046C007C5F6020653
:1014600021D1207880076DD5306910F03801B06A3D
:1014700038D0182908BF5FEA807033D0E06831683F
:10148000002800F03F8121F0190108433060FFF788
:1014900017FD0546306840074DD4FFF711FD401B8E
:1014A0000228F7D9D3E1306900F03801B06A102979
:1014B00005D018290AD100F00300022806D13068AF
:1014C0008003CED560680028CBD1B3E06068B0F56A
:1014D000A02F22DA002800F07981B0F5803F00F0DB
:1014E00099819BE130684007E06802D5002800F050
:1014F000A180316821F0190108433060FFF7E0FC5A
:10150000054600BF3068400715D4FFF7D9FC401BE3
:1015100002284FF00300F5D9EDE100F07381B0F53A
:10152000A81F40F07B81306840F480203060306834
:1015300040F480106DE17068216920F0FE4040EABF
:10154000016070602078C0061AD5306900F038015B
:10155000B06A082907D0182940F0988000F00300ED
:10156000012840F093803068C00502D5E0698028EA
:1015700060D1F068216A20F07C5040EA0160F060A0
:101580002078000759D4207880066AD42078400754
:1015900000F19280656A002D49D0306900F0380072
:1015A000182840F0F180012DB16A306B42D001F073
:1015B0000302A36A9A423DD1C1F30511E26A914246
:1015C00038D10146226B6FF35F21013A914231D14C
:1015D000C0F34622616B01398A422BD1C0F3064227
:1015E000A16B01398A4225D1C0F30660E16B013954
:1015F00088421FD1706BA16CC0F3CC00814216D021
:10160000F06A20F00100F062FFF75AFC0546FFF790
:1016100057FCA842FBD0706B4FF6F871A26C884360
:1016200040EAC2007063F06A40F00100F0620020FE
:1016300001B0F0BD012001B0F0BD60690028706FFD
:101640004ED040F001007067FFF73AFC054600BF3E
:10165000706F800797D4FFF733FC401B0228F7D93F
:10166000F5E0A0690028306869D040F4805030600F
:10167000FFF726FC054600BF306880043FF586AFC3
:10168000FFF71EFC401B0228F6D9E0E0E0690028C5
:10169000306867D040F080003060FFF711FC0546ED
:1016A0003068C0053FF565AFFFF70AFC401B022814
:1016B0004FF00300F4D91EE1D6F8000440F4807026
:1016C000C6F80004FFF7FCFB054600BFD6F800048F
:1016D000C00529D4FFF7F4FB401B6428F6D9B6E017
:1016E00020F001007067FFF7EBFB0546706F800785
:1016F0007FF549AFFFF7E4FB401B02284FF00300E2
:10170000F4D9F8E021F001003060FFF7D9FB05467D
:10171000306840077FF516AFFFF7D2FB401B022869
:101720004FF00300F4D9E6E0A068042800F39280AB
:10173000002800F09B80012800F0BD80BFE020F46D
:1017400080503060FFF7BCFB054600BF3068800466
:101750007FF51CAFFFF7B4FB401B02284FF00300DE
:10176000F4D9C8E020F080003060FFF7A9FB0546FF
:101770003068C0057FF504AFFFF7A2FB401B0228CD
:101780004FF00300F4D9B6E0306820F0807030608C
:10179000FFF796FB022D05460CD100BF3068800193
:1017A00040F1AB80FFF78CFB401B02284FF0030099
:1017B000F4D9A0E0306880017FF539AFFFF780FBF6
:1017C000401B02284FF00300F4D994E0306820F465
:1017D00080303060306820F480103060306820F451
:1017E00080203060FFF76CFB054600BF3068800347
:1017F0007FF537AEFFF764FB401B64284FF0030012
:10180000F4D978E0306840F480203060306820F40B
:1018100080103060306840F480300AE0306820F496
:1018200080303060306820F480203060306820F4F0
:1018300080103060FFF744FB054600BF306880032E
:101840003FF50FAEFFF73CFB401B6428F6D90320A1
:1018500001B0F0BD052826D0852830D1306F40F08A
:1018600004003067306F40F0800023E0306F20F0DC
:1018700001003067306F20F080003067306F20F05B
:1018800004003067FFF71CFB054641F28837306FD4
:1018900080077FF57FAEFFF713FB401BB8424FF088
:1018A0000300F4D927E0306F40F004003067306F58
:1018B00020F080003067306F40F001000AE0306FA8
:1018C00020F001003067306F20F004003067306F87
:1018D00020F080003067FFF7F3FA054641F28837C1
:1018E000306F80073FF556AEFFF7EAFA401BB8426B
:1018F0004FF00300F4D901B0F0BD04F12807B06A3D
:1019000040F2F33188438ECF0843591E40EA02105B
:101910004FF47E426FF35F21B06202EB47204FF439
:10192000FE0280B2E36B0844A16B02EB01414FF071
:10193000FE4201F4FE0102EB0362084402F0FE41A4
:1019400008443063F06A4FF6F87120F00100F0624D
:10195000706BA26C884340EAC2007063F06A216C2D
:1019600020F00C000843F062F06A616C20F0020085
:101970000843F062F06A40F48030F062F06A40F4AC
:101980000030F062F06A40F48020F062F06A40F0CB
:101990000100F062306840F080703060FFF790FA2C
:1019A0000446306880013FF542AEFFF789FA001B1C
:1019B00002284FF00300F4D99DE70000000000006A
:1019C000411E0020B0EB116F01D0012070474EF294
:1019D0001002F023CEF2000251604EF62351CEF2F7
:1019E00000010B700721906011607047000000003B
:1019F000FEE7000000000000FEE70000000000001D
:101A0000FEE700000000000070470000000000003A
:101A10007047000000000000FFF75ABA0000000005
:101A2000B0B59CB044F618044FF69840C5F60204D1
:101A3000CFF6FF7000254FF0FF31CDE91055CDE90D
:101A40000E55CDE90C55CDE90A55CDE90755CDE93F
:101A50000555CDE90355CDE9015521500420FFF787
:101A6000F7FA00950121206861F38F30206020682B
:101A700000F44040009000982068800409D4206859
:101A800080045CBF20685FEA804002D42068800444
:101A9000F2D50220099001210C91129000252021FD
:101AA0001491A0214024CDE91510CDE917000420A0
:101AB0000D94CDE9190509A813951B95FFF7C4FCF2
:101AC00018B1EFF3108072B6FEE73F2001900320BB
:101AD0000421CDE902054FF4A0600694CDE9070486
:101AE00001A8CDE90454FFF7F7FA20B1EFF3108015
:101AF00072B600BFFEE71CB0B0BD000000000000E1
:101B00004EF6885042F2000CCEF20000C5F2002CD6
:101B1000026842F470020260DCF8000000F00F007E
:101B2000022806D8DCF80000032262F30300CCF898
:101B3000000044F200404EF67F51C5F60200CEF69A
:101B4000F621026842F0010202600022026103688D
:101B500019400160DCF8001011F00C0F06D0DCF821
:101B60000010032363F30301CCF8001040F20021BE
:101B70008261C261C0F20221026281620021C0F270
:101B8000FF11C16240F28021C0F201110163426382
:101B90008163C26301644264016821F480210160B1
:101BA000026644F20000C5F2002043F2D201016057
:101BB0007047000000000000FEE700000000000089
:101BC00082B04EF66074CEF20004FFF791F9FFF791
:101BD00027FF4FF6B451CFF6FF716058800312D43F
:101BE000BFF34F8FBFF36F8F002044F8100CBFF38B
:101BF0004F8FBFF36F8F605840F400306050BFF3D9
:101C00004F8FBFF36F8F6058C00361D44FF62460CD
:101C10000021CFF6FF70012343F6E07B21504FF601
:101C20002060CFF6FF70BFF34F8F2058C208C0F37B
:101C3000C907C0F34E317E1E03EBD000A7F1020AA4
:101C4000930700F003054FEA867E4FEA8A70019001
:101C5000F81E009004E000BF0029A1F1010129D085
:101C60000BEA41103A467DB1012D43EA00022260A1
:101C7000324609D0022D4EEA00022260524603D0BD
:101C8000019A02432260009A032FE5D340EA827052
:101C9000013200F1404C80F0004800F1804900BF63
:101CA000043A2060C4F800C0C4F80080C4F8009072
:101CB000F6D1D1E74FF6B451CFF6FF71BFF34F8F96
:101CC000605840F480306050BFF34F8FBFF36F8F88
:101CD0004EF681740F200121C0F20204FEF798FE37
:101CE00041F6485504F12006C0F60005682220465A
:101CF0002946FEF7B9FB7F2230462946FEF7B4FBA2
:101D000000BFF3E7F1EE100A4FF6FF71C0F2C031E9
:101D100020EA010040F04070E1EE100A7047000038
:101D20000000010203040102030406070809000081
:101D30000100010140000000C0000024C004002494
:101D400040050024000000002E2E2F436F72652FE7
:101D50005372632F6D61696E2E630000801D000851
:101D60000000002440000000E8020008C01D000838
:101D700040000024280B00000403000800000000BD
:101D80000090D0030090D00301000000100000007C
:101D90000000000000000000000000000000000043
:101DA0000000000000000000000000000000000033
:101DB0000000000000000000000000000000000023
:04000005080002AD40
:00000001FF
